:020000040000FA
:02000000852950
:08000800F000030E8301BD00AE
:100010000A08B80002308A00CE2AA900A030A00049
:100020002530A1002630A400A5015021AA012108F5
:10003000031921282A145D20FC3E031C2128AA1440
:100040005D202003AB00280F2928FF30A400A50065
:1000500034282808A500A401A600A7012B0A03192B
:100060003428A200A3016A21A90B4D281708CF3913
:10007000A41B2038241B10380C3897002508950045
:100080008316071183122B0883169200831212081D
:10009000FC392A04043892008029A90B5C281D0829
:1000A000CF39A41B2038241B10380C389D0025089C
:1000B0009B008316871042288029A10CA00CA10C5C
:1000C000A00C0800083036190130A300A2013B083B
:1000D00084003908A82039088004802180218413F5
:1000E0000005FF3E361DA20C3619A20D3230EF205E
:1000F000A30B6928220803148029A20008303619AE
:100100000130A300A20C3B0884003908A82039085C
:10011000031880043730EF20390880040930EF20BD
:10012000A30B822803148029B61C80299A28B600C4
:10013000361C80293B0884003908A8200130A10022
:10014000E030F020390880040130A100E030F028D0
:10015000FF3A8005AB28841780058029A000A00DF8
:10016000A00D200D3839C1389F000030A100323079
:10017000F0201F151F19BA28A1011E088029031796
:1001800083168C010C1483120C0803178D0A802926
:10019000030103178C0083168C010C1555308D005C
:1001A000AA308D008C148C18D3280C1183128D0A60
:1001B00080298316F83881050F39810463000F30D8
:1001C00081048029A301A200FF30A207031CA3071A
:1001D000031C80290330A100E430F020E428A101B1
:1001E000F63EA000A109031CFB28FE300000A0077A
:1001F0000318F628A0076400A10FF52800002018B6
:100200000129201803290800013EA7000A30A20096
:10021000A3014E21A70B0929240808000310A10CF3
:10022000A00CFF3E03180E2920088029A101A3017C
:10023000A20001302529A20006302529A101A30131
:10024000A20004302529A2000530A80023082102BD
:10025000031D2C2922082002043003180130031941
:1002600002302805031DFF3080290038031DFF30B0
:100270000405031DFF3080290404031DFF3080297D
:10028000A2002008A6002408A0002608A400210837
:10029000A6002508A1002608A5005029A501A40153
:1002A0001030A600210DA40DA50D2208A4022308DC
:1002B000031C230FA502031864292208A40723089E
:1002C0000318230FA5070310A00DA10DA60B52299B
:1002D000200880291030A800A101A001A70CA60CBD
:1002E000031C78292208A00723080318230FA1075D
:1002F000A10CA00CA50CA40CA80B6E292408802925
:10030000831303138312640008008A110A12292A36
:100310002008E1002108E2002208E3002308E400AD
:100320002408E5002508E6002608E7002708E8007D
:100330002808E9002908EA002A08EB002B08EC004D
:100340002C08ED002D08EE002E08F1002F08F20019
:100350003008F3003108F40034088316AD0083122E
:1003600036088316AE00831239088316B80083124C
:100370003A088316B90083123B088316BA00831229
:100380003C088316BB0083127708BE007808BF00C4
:100390007908C0007A08C1007B08C2007C08C3004D
:1003A0007D08C4007E08C500B71433088A003208EF
:1003B00082006108A0006208A1006308A20064082E
:1003C000A3006508A4006608A5006708A6006808E1
:1003D000A7006908A8006A08A9006B08AA006C08B1
:1003E000AB006D08AC006E08AD007108AE0072087D
:1003F000AF007308B0007408B10083162D08831293
:10040000B40083162E088312B600831638088312B0
:10041000B900831639088312BA0083163A0883128A
:10042000BB0083163B088312BC003E08F7003F0860
:10043000F8004008F9004108FA004208FB004308B0
:10044000FC004408FD004508FE00B7108A110A129E
:10045000FC2A8316BF30A200B630A3008312673097
:10046000D300D4012C30D5000130D6001130D90092
:100470000830DA007030DB001730DC0083163130D2
:100480008500860187018312FE308600870183166E
:100490000E309F00831287158316871183128A11ED
:1004A0000A12AA268A150A1280218A150A12102712
:1004B0008A110A164D2283167F30A000831203177B
:1004C000FF308D00013003138A01C9208A110A12FE
:1004D000C0268A110A12D0278A150A1237208A15D7
:1004E0000A1246218A110A16AB2383163F08C00060
:1004F0004108C2004308C4004508C60083128A119F
:100500000A16CE258316C70183126400483083166D
:1005100047028A110A12831203189D2A831647087C
:10052000A03E840083178312800183138316C70AB9
:100530008A110A128312031D852A83163212B216FB
:100540003217B21333144C3083125D02CF000030E7
:10055000031C013E5E02D000D101D201D701D801B7
:100560008316A401A501A601A8010130A700B211BC
:10057000B3103411B4103211331183128A110A12DC
:10058000CB220C1083160C1483128A110A12C72472
:100590008A110A12FB2C8A110A12062B0408B500D4
:1005A000B71083160C1CDE2A83120C1CDE2ADE30E8
:1005B000B2000230B3008A110A128F2C8312031387
:1005C00083160C1CF62A83120C1CF62AB718EE2A86
:1005D000EE30B2000230B3008A018829F530B20053
:1005E0000230B3008A110A120B2B0C108312031372
:1005F000B71CFC2A8A01D9298301350884003808F0
:100600008A003D0E8300F00E700E09000B178B1749
:100610003030900008008A110A12C0268A110A128E
:1006200060278A110A12AA26D10A0319D20AD70A08
:100630000319D80A8316A80A64002708013C8A1106
:100640000A128312031D332B8316A60A64002608A0
:100650004B3C8A110A128312031D332B8316B217E7
:10066000A601A70183120A305502F7000030031CCF
:10067000013E5602F8005108A0005208A100780877
:10068000A30077088A0123218A110A12031D4B2B2C
:100690008316321683125108A0005208A100560892
:1006A000A30055088A0123218A110A12031D5D2B1C
:1006B000D101D2018316B21683125708A000580840
:1006C000A1005C08A3005B088A0123218A110A1299
:1006D000031D6F2BD701D8018316321783126400D4
:1006E00083162808053C8A110A128312031D7C2BED
:1006F0008316A8013314831264008A110A12831628
:100700008310B21D8314831283188A2B8316B314AB
:10071000B2118312030183163219FF308312F700DE
:100720000301851AFF30F9007708840079088A01EF
:100730003521F900FA00640079087A048A110A1256
:100740000319A52B83163211831264008A110A1231
:10075000851AEF2B871583168711A6010130A70094
:1007600064008A110A128310321D831483128318C5
:10077000EC2B64001330831620028A110A128312B4
:100780000318D52B83161230A000A40A6400240895
:10079000063C8A110A128312031DD22B83163315CD
:1007A000A40183128A110A12E92B64001C308316FB
:1007B00020028A110A1283120318E52B83161230C5
:1007C000A00083128A110A12E92B0A308316A002B4
:1007D0008312831634158312831632158312030194
:1007E0008316B418FF308312F7000301051AFF3097
:1007F000F9007708840079088A013521F900FA00A8
:10080000640079087A048A110A1203190A2C8316E3
:10081000B410831264008A110A12051A382C871545
:1008200083168711A6010130A70064008A110A12FD
:100830008310B41C831483128318352C6400F530A4
:10084000831620028A110A128312031C2E2C83168F
:10085000FF30A00083128A110A12322C0A3083164C
:10086000A00783128316341583128316B4148312DF
:10087000831624088312A00000308A011621F70095
:100880000301051AFF30F9007708840079088A010E
:100890003521F900FA000301851AFF30FB007908C1
:1008A0007A0484007B088A013521FB00FC00640087
:1008B0007B087C048A110A120319612C8316A40197
:1008C00083125D08A0005E08A100A30100308A0128
:1008D0001B218A110A12031D8B2CCF0A0319D00A7F
:1008E0004F08A0005008A1005E08A3005D088A011F
:1008F00023218A110A12031D8B2C8A150A12192032
:10090000CF01D00183160C1083128A110A12CD2454
:1009100083163315831233088A00320882001010C0
:10092000DD308E0703188F0A0B308F071014330841
:100930008A0032088200CF01D0015108A600520877
:10094000A7005508A2005608A3008A016A21DF000B
:100950002508E0005408A30053088A014021D10073
:100960002108D2005708A6005808A7005B08A2007B
:100970005C08A3008A016A21DF002508E0005A080C
:10098000A30059088A014021D7002108D800DD3092
:100990008E000B308F001014080010105108A600B4
:1009A0005208A7005308A2005408A3008A016A2134
:1009B000DF002508E0005608A30055088A01402101
:1009C000D1002108D2005708A6005808A7005908EE
:1009D000A2005A08A3008A016A21DF002508E0006E
:1009E0005C08A3005B088A014021D7002108D800D9
:1009F000CF01D001080064008A110A128316831007
:100A000033198314831283180B2D8A110A121025AF
:100A10008A110A120E2D8A110A12AD258A01FB2CA9
:100A200064008A110A1283168310321E8314831203
:100A30008318202D8A110A16392483163212831244
:100A400064008A110A1283168310B21E8314831263
:100A50008318332D8A110A1649248A110A16CE25C5
:100A60008316B212831264008A110A12831683104D
:100A7000331C831483128318432D8316331083127F
:100A80008A150A12D42764008A110A128316831069
:100A9000321F831483128318512D83163213B2151B
:100AA000831264008A110A1283168310B31C831404
:100AB00083128318642D8A110A1621208A110A16BE
:100AC00047208316B310831264008A110A1283161A
:100AD0008310B21F831483128318772D8711831616
:100AE00087118312FE3086008316B21383126400CE
:100AF0008A110A1283168310341D831483128318FB
:100B0000AC2D640083162008FF3C8A110A12831260
:100B1000031D8F2DFA30860064308A01E2206400C4
:100B200083162008123C8A110A128312031D9C2D81
:100B3000860164308A01E2208A150A1237208A1160
:100B40000A12C026831634118312CF01D0018316F6
:100B5000A6010130A7008312080064008A110A125E
:100B6000121DCA2D83160C1083128A01CD248A15FA
:100B70000A1219208711831687118312FE3086000E
:100B800064008A110A12851ACA2D64308A01E22093
:100B90008A01C02DD10A0319D20AD70A0319D80A2B
:100BA00005308A01D92064008A110A12051A2C2EF8
:100BB000871583168711A40183128A110A12AA26A7
:100BC0008A110A12AF260230A300EE308A01E32018
:100BD0000301051EFF30F70003018316B218FF3032
:100BE0008312F9007708840079088A013521F90019
:100BF000FA00640079087A048A110A1203192C2E6B
:100C00008316331164002008123C8A110A128312E1
:100C1000031D0E2E83161330A0008312640083166A
:100C20002008FF3C8A110A128312031D1B2E831613
:100C3000FE30A00083128A110A12C0268A110A12FD
:100C4000D027CF01D0010C1083160C1483128A0117
:100C50009B2483163415831264008A110A12851AA4
:100C60004A2E871583168711A401A5018312073028
:100C7000A300D0308A01E32064008A110A12851A89
:100C80004A2E8A150A1246218A150A129F208A15B1
:100C90000A12462164008A110A12871D5E2E8316ED
:100CA000A40A640024081E3C8A110A128312031D40
:100CB0005E2E871183168711A4018312043053021C
:100CC000F7000030031C013E5402F8005108A00058
:100CD0005208A1007808A30077088A0123218A110D
:100CE0000A12031D762E8A110A1639245108A00013
:100CF0005208A1005408A30053088A0123218A1135
:100D00000A12031D912ED101D2018A110A12AA26BC
:100D10008A110A1649248A110A16CE258A150A1242
:100D2000D4275708A0005808A1005A08A300590862
:100D30008A0123218A110A12031DA92ED701D80185
:100D40008A110A12AA268A110A1621208A110A1665
:100D50004720080000308A01AE20EF000800640040
:100D6000B6306F028A110A12031CBC2E8316B2140D
:100D700083128A110A12BF2E8316B2108312080042
:100D80006400B2306F028A110A120318CD2E831646
:100D9000331583128A110A125F2F6400BB306F0271
:100DA0008A110A120318D92EFE30FF008A110A1286
:100DB0005F2F6400C4306F028A110A120318FD2EDF
:100DC0003430A600A7016F08A200A3018A016A219E
:100DD000F7002508F8007708A0007808A1000A307D
:100DE000A200A3018A014E21F7002108F80077082C
:100DF000C03CFF008A110A125F2F6400D5306F02D9
:100E00008A110A120318212F2230A600A7016F08A9
:100E1000A200A3018A016A21F7002508F8007708DB
:100E2000A0007808A1000A30A200A3018A014E2187
:100E3000F7002108F80077085F3CFF008A110A12CA
:100E40005F2F6400E6306F028A110A120318452FE3
:100E50001530A600A7016F08A200A3018A016A212C
:100E6000F7002508F8007708A0007808A1000A30EC
:100E7000A200A3018A014E21F7002108F80077089B
:100E80004D3CFF008A110A125F2F7D30A600A7019A
:100E90006F08A200A3018A016A21F7002508F80063
:100EA0007708A0007808A1006430A200A3018A019D
:100EB0004E21F7002108F8007708893CFF00080060
:100EC0007F08A600A701831620088312A200A301B1
:100ED0008A016A21F7002508F8007708A000780841
:100EE000A100FF30A200A3018A014E218316AB00AE
:100EF00064002B082C028A110A1283120319CF2FC7
:100F0000640083162B082C028A110A12831203181C
:100F1000AB2F83162C08BE008312640083163E0894
:100F20002B028A110A128312031CA82F83163E0873
:100F30008312A8006330A2000230A30001308A01AE
:100F40000D208316BE0A8A110A128312031D8D2FEB
:100F50008A110A12CB2F83162C08BE00831264005C
:100F600083162B083E028A110A128312031CCB2F10
:100F700083163E088312A8006330A2000230A3004B
:100F800001308A010D2001308316BE028A110A1237
:100F900083120318AF2F83162B08AC0083120800AE
:100FA000A8016330A2000230A30001308A010D20A5
:100FB00012158A150A1237208316BE0183126400A7
:100FC00083163E0820028A150A128312031C142875
:100FD0007F08A600A70183163E088312A200A30182
:100FE0008A016A21F7002508F8007708A000780830
:100FF000A100FF30A200A3018A014E218316AB009D
:101000002B088312A8006330A2000230A300013035
:101010008A010D200A308A01E2208316BE0A8A1155
:101020000A128312031DDF2F83162B08AC008312D4
:10103000080083162C08AB00831283162B0883123A
:10104000A8006330A2000230A30001308A010D2005
:101050000A308A01E22001308316AB028A150A1297
:10106000831203181D28071197011211080064004C
:101070000A30831620028A150A12831203184528A3
:10108000FE3086008A150A129A28640037308316CB
:1010900020028A150A12831203185328DE308600B4
:1010A0008A150A129A2864005C30831620028A1579
:1010B0000A12831203186128CE3086008A150A129C
:1010C0009A2864008130831620028A150A1283123E
:1010D00003186F28C63086008A150A129A28640001
:1010E000A630831620028A150A12831203187D285F
:1010F000463086008A150A129A286400CB3083167F
:1011000020028A150A12831203188B2844308600A5
:101110008A150A129A286400F030831620028A1574
:101120000A12831203189928043086008A150A12BD
:101130009A288601871583168711831208008A155D
:101140000A1219210301051EFF30F7000301851E55
:10115000FF30F9007708840079088A013C21F90002
:10116000FA00640079087A048A150A120319BE2865
:101170000A308A01E2208A150A12A228640005308A
:10118000831625028A150A12831203180A29831668
:10119000A50A64008A150A128312051AE42864005D
:1011A000013083163E028A150A128312031CDE28C0
:1011B0008316BE0383128A150A12E1288316BE0124
:1011C00083128316A501831264008A150A12851AF8
:1011D000FF286400033083163E028A150A12831228
:1011E0000318F8288316BE0A83128A150A12FC28EF
:1011F00083160330BE0083128316A50183128A155D
:101200000A1219210330A300E8308A01E3208A156D
:101210000A12BE280317FF308D00831603133E0801
:1012200083128A01C920FE308600C8308A01E2207C
:101230000800640083163E08003C8A150A128312D7
:10124000031D2429FA308600640083163E08013C01
:101250008A150A128312031D2F29FC3086006400B0
:1012600083163E08023C8A150A128312031D3A298E
:10127000F6308600640083163E08033C8A150A1285
:101280008312031D4529DE30860008000317FF3056
:101290008D0003138A01BF208316BE0064003E0840
:1012A000003C8A150A128312031D5829DD01DE0154
:1012B000640083163E08013C8A150A128312031D3E
:1012C0006529F030DD00D230DE00640083163E0870
:1012D000023C8A150A128312031D7229A030DD0018
:1012E0008C30DE00640083163E08033C8A150A1227
:1012F0008312031D7F295030DD004630DE000800D8
:10130000851583168511FA3083128A01E2200710B1
:1013100083160710831207128316071283128A1589
:101320000A129E218A150A12032207148316071037
:101330008312071683160712831208008713831679
:101340008713143083128A01E220871783168713CC
:1013500083120713831607132130B00083128A15F6
:101360000A124422071083160710831207168316E9
:1013700007122208B00083128A150A1244220712AB
:101380008316071283120714831607102308B00070
:1013900083128A150A12442207108316071083123B
:1013A0000712831607120430B00083128A150A123E
:1013B000442283161330B00083128A150A12442285
:1013C00083162030B00083128A150A124422831635
:1013D0000C30B00083128A150A1244220800071349
:1013E000831607132208B00083128A150A124422BA
:1013F00008000713831607132308B00083128A1509
:101400000A12442208008A150A1229220717831695
:1014100007130130AF0083126400FD3083162F02E2
:101420008A150A1283120318282A8316B001831220
:101430008A150A1244228316B00183128A150A12F1
:1014400044228316AF0A8A150A128312031D0C2A3E
:1014500008008316B501B60183128A150A123122DB
:10146000080007138316071340303604B0008312B8
:101470008A150A124422803083163504B000831284
:101480008A150A124422080083168310B01B8314A5
:10149000831283188714831C87108716871283167C
:1014A0008310301B8314831283188714831C8710C6
:1014B0008716871283168310B01A83148312831839
:1014C0008714831C87108716871283168310301A9F
:1014D0008314831283188714831C8710871687123E
:1014E00083168310B0198314831283188714831C06
:1014F000871087168712831683103019831483127E
:1015000083188714831C871087168712831683100D
:10151000B0188314831283188714831C87108716CE
:10152000871283168310301883148312831887144C
:10153000831C87108716871208000713831607136A
:101540000D30B00083128A150A1244220800831657
:101550000830B00083128A150A12442208000713CB
:10156000831607130C30B00083128A150A12442226
:101570000800640083163008003C8A150A128312A2
:10158000031DD02A3E30C6005130C7004930C80084
:101590004530C9003E30CA00CB018A150A126E2DB3
:1015A000640083163008013C8A150A128312031D59
:1015B000E52AC6014230C7007F30C8004030C9006C
:1015C000CA01CB018A150A126E2D640083163008F9
:1015D000023C8A150A128312031DFC2A4230C600FF
:1015E0006130C7005130C8004930C9004630CA00D8
:1015F000CB018A150A126E2D640083163008033C55
:101600008A150A128312031D132B2130C6004130A4
:10161000C7004530C8004B30C9003130CA00CB018B
:101620008A150A126E2D640083163008043C8A1550
:101630000A128312031D2A2B1830C6001430C7006B
:101640001230C8007F30C9001030CA00CB018A15A3
:101650000A126E2D640083163008053C8A150A12A2
:101660008312031D412B2730C6004530C70045308B
:10167000C8004530C9003930CA00CB018A150A12AA
:101680006E2D640083163008063C8A150A128312F8
:10169000031D582B3C30C6004A30C7004930C800F3
:1016A0004930C9003030CA00CB018A150A126E2DAC
:1016B000640083163008073C8A150A128312031D42
:1016C0006F2B0130C6007130C7000930C8000530EB
:1016D000C9000330CA00CB018A150A126E2D6400BE
:1016E00083163008083C8A150A128312031D862BC4
:1016F0003630C6004930C7004930C8004930C900FB
:101700003630CA00CB018A150A126E2D640083168A
:101710003008093C8A150A128312031D9D2B0630DE
:10172000C6004930C7004930C8002930C9001E3002
:10173000CA00CB018A150A126E2D64008316300888
:10174000203C8A150A128312031DAF2BC601C70164
:10175000C801C901CA01CB018A150A126E2D6400A5
:10176000831630082D3C8A150A128312031DC62BDE
:101770001030C6001030C7001030C8001030C9004B
:101780001030CA00CB018A150A126E2D6400831630
:1017900030082E3C8A150A128312031DDA2BC6016B
:1017A0006030C7006030C800C901CA01CB018A158A
:1017B0000A126E2D640083163008433C8A150A1203
:1017C0008312031DF12B3E30C6004130C70041306B
:1017D000C8004130C9002230CA00CB018A150A1264
:1017E0006E2D640083163008473C8A150A12831256
:1017F000031D082C3E30C6004130C7004930C800E8
:101800004930C9007A30CA00CB018A150A126E2D00
:10181000640083163008483C8A150A128312031D9F
:101820001F2C7F30C6000830C7000830C8000830C1
:10183000C9007F30CA00CB018A150A126E2D6400E0
:1018400083163008493C8A150A128312031D342C72
:10185000C6014130C7007F30C8004130C900CA010D
:10186000CB018A150A126E2D6400831630084A3C9B
:101870008A150A128312031D4B2C2030C6004030FB
:10188000C7004130C8003F30C9000130CA00CB0159
:101890008A150A126E2D640083163008563C8A158C
:1018A0000A128312031D622C1F30C6002030C700AD
:1018B0004030C8002030C9001F30CA00CB018A1553
:1018C0000A126E2D640083163008613C8A150A12D4
:1018D0008312031D792C2030C6005430C7005430C9
:1018E000C8005430C9007830CA00CB018A150A12EA
:1018F0006E2D640083163008653C8A150A12831227
:10190000031D902C3830C6005430C7005430C80036
:101910005430C9001830CA00CB018A150A126E2D46
:10192000640083163008683C8A150A128312031D6E
:10193000A72C7F30C6000830C7000430C800043030
:10194000C9007830CA00CB018A150A126E2D6400D6
:1019500083163008693C8A150A128312031DBC2CB9
:10196000C6014430C7007D30C8004030C900CA01FC
:10197000CB018A150A126E2D6400831630086B3C69
:101980008A150A128312031DD22C7F30C600103034
:10199000C7002830C8004430C900CA01CB018A15ED
:1019A0000A126E2D6400831630086C3C8A150A12E8
:1019B0008312031DE72CC6014130C7007F30C800E9
:1019C0004030C900CA01CB018A150A126E2D64008D
:1019D000831630086D3C8A150A128312031DFE2CF3
:1019E0007C30C6000430C7001830C8000430C9007D
:1019F0007830CA00CB018A150A126E2D6400831656
:101A00003008733C8A150A128312031D152D4830C5
:101A1000C6005430C7005430C8005430C9002030CC
:101A2000CA00CB018A150A126E2D64008316300895
:101A3000743C8A150A128312031D2C2D0430C60033
:101A40003F30C7004430C8004030C9002030CA00D1
:101A5000CB018A150A126E2D640083163008763C7D
:101A60008A150A128312031D432D1C30C600203034
:101A7000C7004030C8002030C9001C30CA00CB016C
:101A80008A150A126E2D640083163008793C8A1577
:101A90000A128312031D5A2D0C30C6005030C700A5
:101AA0005030C8005030C9003C30CA00CB018A1504
:101AB0000A126E2D640083163008843C8A150A12BF
:101AC0008312031D6E2D2230C6005430C7005430DF
:101AD000C8005430C9003A30CA00CB0164008A15EE
:101AE0000A1283168310B31D831483128318AE2D3C
:101AF0000230A600A7014608A200A3018A016A21BC
:101B0000C6000230A600A7014708A200A3018A016F
:101B10006A21C7000230A600A7014808A200A3015D
:101B20008A016A21C8000230A600A7014908A20064
:101B3000A3018A016A21C9000230A600A7014A0850
:101B4000A200A3018A016A21CA000230A600A701EF
:101B50004B08A200A3018A016A21CB000717831654
:101B600007138312C61B8714C61F87108716871298
:101B7000461B8714461F871087168712C61A8714BC
:101B8000C61E871087168712461A8714461E8710AE
:101B900087168712C6198714C61D871087168712E5
:101BA00046198714461D871087168712C618871492
:101BB000C61C87108716871246188714461C871084
:101BC00087168712C71B8714C71F871087168712AF
:101BD000471B8714471F871087168712C71A871459
:101BE000C71E871087168712471A8714471E87104B
:101BF00087168712C7198714C71D87108716871283
:101C000047198714471D871087168712C71887142E
:101C1000C71C87108716871247188714471C871020
:101C200087168712C81B8714C81F8710871687124C
:101C3000481B8714481F871087168712C81A8714F5
:101C4000C81E871087168712481A8714481E8710E7
:101C500087168712C8198714C81D87108716871220
:101C600048198714481D871087168712C8188714CB
:101C7000C81C87108716871248188714481C8710BD
:101C800087168712C91B8714C91F871087168712EA
:101C9000491B8714491F871087168712C91A871492
:101CA000C91E871087168712491A8714491E871084
:101CB00087168712C9198714C91D871087168712BE
:101CC00049198714491D871087168712C918871468
:101CD000C91C87108716871249188714491C87105A
:101CE00087168712CA1B8714CA1F87108716871288
:101CF0004A1B87144A1F871087168712CA1A87142F
:101D0000CA1E8710871687124A1A87144A1E871020
:101D100087168712CA198714CA1D8710871687125B
:101D20004A1987144A1D871087168712CA18871404
:101D3000CA1C8710871687124A1887144A1C8710F6
:101D400087168712CB1B8714CB1F87108716871225
:101D50004B1B87144B1F871087168712CB1A8714CB
:101D6000CB1E8710871687124B1A87144B1E8710BD
:101D700087168712CB198714CB1D871087168712F9
:101D80004B1987144B1D871087168712CB188714A1
:101D9000CB1C8710871687124B1887144B1C871093
:101DA0008716871207138316071383120800071775
:101DB000831607138312C61B8714C61F8710871646
:101DC0008712461B8714461F871087168712C61A6C
:101DD0008714C61E871087168712461A8714461E58
:101DE000871087168712C6198714C61D8710871695
:101DF000871246198714461D871087168712C61842
:101E00008714C61C87108716871246188714461C2D
:101E1000871087168712071383160713831208008B
:101E20008316B31583120710831607108312071643
:101E300083160712BE0183126400053083163E022A
:101E40008A150A12831203183F2F83164C30B500EF
:101E50003E08B60083128A150A123122FF30C600EE
:101E60008A150A12D7260130C6008A150A12D7260B
:101E70008316BE0A8A150A128312031D1C2F8A15A7
:101E80000A12D72683164E30B500B60183128A1582
:101E90000A1231224030C600E030C700C80180304D
:101EA000C9004030CA00E030CB008A150A12AE25C6
:101EB00083164E30B5000130B60083128A150A121F
:101EC00031224030C600E730C700C8012130C900C8
:101ED000A130CA00E730CB008A150A12AE2583165E
:101EE0004E30B5000230B60083128A150A12312234
:101EF0004030C600E730C700C8014430C900243074
:101F0000CA00C730CB008A150A12AE2583164E30A0
:101F1000B5000330B60083128A150A123122403010
:101F2000C600E730C700C8014630C900E530CA0026
:101F30000430CB008A150A12AE2583164E30B50048
:101F40000430B60083128A150A1231224030C600CE
:101F5000E730C700C801E430C9002730CA00E430C8
:101F6000CB008A150A12AE2583164E30B500053017
:101F7000B60083128A150A123122C6010730C70043
:101F8000C8010730C9000430CA000730CB008A15E9
:101F90000A12AE250714831607108312071683163C
:101FA0000712B311831208008316B31583120716A4
:101FB00083160712831207108316071083129630B8
:101FC000A600A7016F08A200A3018A016A21F700F9
:101FD0002508F8007708A0007808A100FF30A200CB
:101FE000A3018A014E218316B70037080317A0000A
:101FF0000313C7014A30B5008312640049308316C9
:1020000035028A110A168312031C14288A110A1633
:102010006B208A110A16352101308316B5028A1504
:102020000A1283120318FD2F8A110A16DC200714E6
:10203000831607108312071683160712B311831233
:1020400008008316B315831207168316071283122E
:102050000710831607104730B50083128A110A163D
:102060006B208A110A1635218316C70A0130B50282
:102070008A110A16831203182E28071483160710D4
:102080008312071683160712B311831208008316F2
:102090004730C70083120130831647078312F900C7
:1020A000FA01FA0D83164708A03E840083178312B5
:1020B0000008F70083137908A03E8400831777088F
:1020C0008000831301308316C7028A110A16831217
:1020D00003184B28080083164708A03E8400831786
:1020E00083120008F70083136400663077028A11B8
:1020F0000A160318842883164708A03E8400831715
:10210000831266308000831383164708A03E840044
:10211000831783120008F70083139C307707F700BA
:10212000FF300318013EF8007708A0007808A100EE
:102130000A30A200A3018A014E218316B10047088C
:10214000A03E8400831783120008F70083139C309D
:102150007707F700FF300318013EF80083163108B7
:102160008312A600A7010A30A200A3018A016A21F6
:10217000F9002508FA0079087702F9007A08031CAB
:10218000013E7802FA007908A6007A08A700083014
:10219000A200A3018A016A21F9002508FA00790842
:1021A000A0007A08A1000A30A200A3018A014E21F2
:1021B0008316A10083120800831637088312A0003B
:1021C000A10102308A010421CC0083163708831252
:1021D000A000A10101308A010421CD008316370837
:1021E0008312A000A10100308A010421CE008316D1
:1021F0001E30B5000530B60083128A150A1231224E
:1022000064004C08003C8A110A16031D092920307D
:10221000CC004C088316B00083128A150A12B9222A
:102220004D088316B00083128A150A12B9220717C7
:10223000831607138030B00083128A150A124422D5
:102240008316B00183128A150A1244224E0883169F
:10225000B00083128A150A12B92283165630B000D4
:1022600083128A150A12B92208006400013083160D
:1022700031028A110A16831203184F29831604307B
:10228000B60083128A150A12312283162108B00083
:1022900083128A110A16CF218A110A167F29831602
:1022A000BE018312FF30831631078312F700FF301F
:1022B0000318013EF80083163E088312A000A10116
:1022C0007808A30077088A0118218A110A16031DCD
:1022D0007F2983163E08043CB60083128A150A1231
:1022E000312283160830B00083128A110A16CF21DA
:1022F0008316BE0A8A110A168312031D52298316F9
:1023000031088312A00000308A011621F7008316DD
:1023100031088312A00005308A011E21F9007708D8
:10232000840079088A013521F900FA0064007908EF
:102330007A048A110A160319AC2983163108043C61
:10234000B60083128A150A12312283162108B000C2
:1023500083128A110A16CF218316310ABE00831216
:102360006400053083163E028A110A168312031890
:10237000CE2983163E08043CB60083128A150A1241
:1023800031228316B00183128A110A16CF218316D7
:10239000BE0A8A110A168312031DB02908006400C0
:1023A00083163008003C8A110A168312031DDC29AB
:1023B000C6018A110A16492A640083163008013CB6
:1023C0008A110A168312031DEA298030C6008A1179
:1023D0000A16492A640083163008023C8A110A163C
:1023E0008312031DF829C030C6008A110A16492A33
:1023F000640083163008033C8A110A168312031DF9
:10240000062AE030C6008A110A16492A640083169B
:102410003008043C8A110A168312031D142AF03076
:10242000C6008A110A16492A640083163008053C42
:102430008A110A168312031D222AF830C6008A1157
:102440000A16492A640083163008063C8A110A16C7
:102450008312031D302AFC30C6008A110A16492A4D
:10246000640083163008073C8A110A168312031D84
:102470003E2AFE30C6008A110A16492A64008316D5
:102480003008083C8A110A168312031D492AFF30BE
:10249000C6008A150A12D7260800071283160712EB
:1024A0008312071483160710BE01831264000730DD
:1024B00083163E028A110A1683120318742A8316A1
:1024C0002A30B5003E08B60083128A150A1231225E
:1024D000FF30C6008A150A12D7268316BE0A8A1153
:1024E0000A168312031D562A8316B5010330B6005F
:1024F00083128A150A1231228316BE0183126400E8
:102500000E3083163E028A110A1683120318AD2A72
:102510000830C6008A150A12D7260830C6008A1568
:102520000A12D7260830C6008A150A12D7260830A4
:10253000C6008A150A12D7260830C6008A150A1264
:10254000D7260830C6008A150A12D7268316BE0A77
:102550008A110A168312031D7F2A83162A30B500BA
:102560000330B60083128A150A123122FF30C600EA
:102570008A150A12D72683160A30B5000130B60034
:1025800083128A150A12312283164930B000831251
:102590008A150A12B92283166C30B00083128A158C
:1025A0000A12B92283166D30B00083128A150A12FE
:1025B000B92283166130B00083128A150A12B9223B
:1025C00083160A30B5000430B60083128A150A1249
:1025D000312283165630B00083128A150A12B922AE
:1025E00083166530B00083128A150A12B922831649
:1025F0007330B00083128A150A12B922831669302B
:10260000B00083128A150A12B92283163230B5003F
:102610000130B60083128A150A123122831648301F
:10262000B00083128A150A12B92283167930B000DD
:1026300083128A150A12B92283167430B0008312ED
:102640008A150A12B92283167430B00083128A15D3
:102650000A12B92283166930B00083128A150A1251
:10266000B92283163230B5000430B60083128A15C1
:102670000A12312283164A30B00083128A150A12D8
:10268000B92283168430B00083128A150A12B92247
:1026900083168430B00083128A150A12B922831679
:1026A0006B30B00083128A150A12B92283162E30BD
:1026B000B00083128A150A12B92283161730B500AA
:1026C00083128A110A16742383164430B5008312CC
:1026D0008A110A167423071483160710831207162B
:1026E000831607128312080083160230BE0083127D
:1026F0006400063083163E028A110A1683120318FC
:10270000AA2B83163E08B60083128A150A123122BC
:102710000230C6008A150A12D7260530C6008A156F
:102720000A12D7260230C6008A150A12D726C60119
:102730008A150A12D72683164330B00083128A15F1
:102740000A12B92203308316BE078A110A168312B1
:10275000031C782B08008514831685108312013022
:10276000A300F4308A01E3200530BB000430B90037
:1027700001308A01972055308A017D204E308A0130
:102780007D2000308A017D2000308A017D201F30AD
:102790008A017D208A0194208A110A1639240A3080
:1027A0008A01E2200530BB000430B90004308A0100
:1027B00097208A0162208316013903193210031D04
:1027C000321483128A01942064008A110A16831637
:1027D0008310321C831483128318CF2B8A110A169C
:1027E00049248316BE0A3F08553C031DFF3083125F
:1027F000F70083164108553C031DFF308312F90092
:102800007708840079088A013521F900FA008316D7
:102810004308553C031DFF308312FB0079087A04FE
:1028200084007B088A013521FB00FC0083164508E3
:10283000553C031DFF308312FD007B087C0484009F
:102840007D088A013521FD00FE0064007D087E04BC
:102850008A110A1603192F2C8A110A16382C6400C3
:10286000653083163E028A110A168312031CB42BAC
:1028700008000530BB000430B90001308A01972000
:10288000CC308A017D2044308A017D208A01942049
:1028900008000530BB000430B90001308A019720E0
:1028A00055308A017D2028308A017D20FF308A0141
:1028B0007D2027308A017D2054308A017D204C30D4
:1028C0008A017D2004308A017D2000308A017D202C
:1028D00086308A017D20BE308A017D208A019420C5
:1028E0000530BB000430B90002308A0197208A010C
:1028F0006220F5008A016220F6008A019420F030FF
:102900007505F7000F307605F8007708A000780805
:10291000A10004308A0111218316BF0064008130B8
:102920003F028A110A168312031CA72C83163F0844
:10293000FF3C8312F7000030031CFF3EF800770ACB
:102940008316BF00B31683128A110A16AA2C8316A7
:10295000B31283120530BB000430B90001308A0184
:10296000972055308A017D2028308A017D20FF3054
:102970008A017D20E5308A017D2020308A017D207A
:102980004A308A017D2004308A017D2000308A018E
:102990007D2050308A017D20BE308A017D208A0151
:1029A00094200530BB000430B90002308A01972022
:1029B0008A016220F5008A016220F6008A019420D3
:1029C000F0307505F7000F307605F8007708A000A5
:1029D0007808A10004308A0111218316C100640027
:1029E000813041028A110A168312031C082D8316B6
:1029F0004108FF3C8312F7000030031CFF3EF80043
:102A0000770A8316C100331783128A110A160B2D19
:102A10008316331383120530BB000430B900013034
:102A20008A01972055308A017D2028308A017D2037
:102A3000FF308A017D20EE308A017D2019308A0125
:102A40007D204A308A017D2004308A017D200030BB
:102A50008A017D20FB308A017D20BE308A017D20E5
:102A60008A0194200530BB000430B90002308A018D
:102A700097208A016220F5008A016220F6008A010F
:102A80009420F0307505F7000F307605F8007708D0
:102A9000A0007808A10004308A0111218316C30028
:102AA0006400813043028A110A168312031C692DC7
:102AB00083164308FF3C8312F7000030031CFF3EDF
:102AC000F800770A8316C300B31783128A110A1617
:102AD0006C2D8316B31383120530BB000430B9008C
:102AE00001308A01972055308A017D2028308A01E3
:102AF0007D20FF308A017D2015308A017D20443001
:102B00008A017D204E308A017D2004308A017D209B
:102B100000308A017D20F6308A017D20BE308A0196
:102B20007D208A0194200530BB000430B9000230BA
:102B30008A0197208A016220F5008A016220F6004E
:102B40008A019420F0307505F7000F307605F80003
:102B50007708A0007808A10004308A0111218316AB
:102B6000C5006400813045028A110A168312031CD5
:102B7000CA2D83164508FF3C8312F7000030031C62
:102B8000FF3EF800770A8316C500341483128A11B9
:102B90000A16CD2D831634108312080007148316ED
:102BA000071083120712831607123F08C0003F0860
:102BB000BE00B31A3316B31E33120530B50002300F
:102BC000B60083128A110A16212683164108C20014
:102BD0004108BE00331B3316331F33120530B500D6
:102BE0000530B60083128A110A162126831643087F
:102BF000C4004308BE00B31B3316B31F3312323078
:102C0000B5000230B60083128A110A1621268316F7
:102C10004508C6004508BE0034183316341C33126C
:102C20003230B5000530B60083128A110A1621260B
:102C300007148316071083120716831607128312D0
:102C4000080083163E088312A000A10102308A0109
:102C50000421CC0083163E088312A000A10101309C
:102C60008A010421CD0083163E088312A000A10131
:102C700000308A010421CE004C08003C031DFF30C7
:102C8000FF3AF7004D08003C031DFF30FF3AF90002
:102C90007708840079088A013521F900FA00640078
:102CA00079087A048A110A160319582E2030CD00AB
:102CB00064004C08003C8A110A16031D612E203066
:102CC000CC0064008A110A1683168310331E831405
:102CD00083128318792E64004D08203C8A110A164D
:102CE000031D772E2D30CD008A110A16792E2D3036
:102CF000CC008A150A1231224C088316B0008312C8
:102D00008A150A12B9224D088316B00083128A155B
:102D10000A12B9224E088316B00083128A150A12CD
:042D2000B9220800CC
:02400E00363F3B
:00000001FF
